{"abi":[{"type":"constructor","inputs":[{"name":"_quoteToken","type":"address","internalType":"address"}],"stateMutability":"nonpayable"},{"type":"function","name":"DECIMALS_TO_SCALE","inputs":[],"outputs":[{"name":"","type":"uint8","internalType":"uint8"}],"stateMutability":"view"},{"type":"function","name":"QUOTE_TOKEN","inputs":[],"outputs":[{"name":"","type":"address","internalType":"address"}],"stateMutability":"view"},{"type":"function","name":"SCALE_FACTOR","inputs":[],"outputs":[{"name":"","type":"uint256","internalType":"uint256"}],"stateMutability":"view"},{"type":"function","name":"VERSION","inputs":[],"outputs":[{"name":"version","type":"string","internalType":"string"}],"stateMutability":"pure"},{"type":"function","name":"baseToken","inputs":[],"outputs":[{"name":"token","type":"address","internalType":"address"}],"stateMutability":"view"},{"type":"function","name":"beforeQuote","inputs":[{"name":"","type":"address","internalType":"address"}],"outputs":[],"stateMutability":"nonpayable"},{"type":"function","name":"decimals","inputs":[],"outputs":[{"name":"","type":"uint8","internalType":"uint8"}],"stateMutability":"view"},{"type":"function","name":"description","inputs":[],"outputs":[{"name":"","type":"string","internalType":"string"}],"stateMutability":"view"},{"type":"function","name":"getRoundData","inputs":[{"name":"","type":"uint80","internalType":"uint80"}],"outputs":[{"name":"","type":"uint80","internalType":"uint80"},{"name":"","type":"int256","internalType":"int256"},{"name":"","type":"uint256","internalType":"uint256"},{"name":"","type":"uint256","internalType":"uint256"},{"name":"","type":"uint80","internalType":"uint80"}],"stateMutability":"pure"},{"type":"function","name":"latestRoundData","inputs":[],"outputs":[{"name":"roundId","type":"uint80","internalType":"uint80"},{"name":"answer","type":"int256","internalType":"int256"},{"name":"startedAt","type":"uint256","internalType":"uint256"},{"name":"updatedAt","type":"uint256","internalType":"uint256"},{"name":"answeredInRound","type":"uint80","internalType":"uint80"}],"stateMutability":"view"},{"type":"function","name":"quote","inputs":[{"name":"_baseAmount","type":"uint256","internalType":"uint256"},{"name":"_baseToken","type":"address","internalType":"address"}],"outputs":[{"name":"quoteAmount","type":"uint256","internalType":"uint256"}],"stateMutability":"view"},{"type":"function","name":"quoteToken","inputs":[],"outputs":[{"name":"","type":"address","internalType":"address"}],"stateMutability":"view"},{"type":"function","name":"version","inputs":[],"outputs":[{"name":"","type":"uint256","internalType":"uint256"}],"stateMutability":"pure"},{"type":"error","name":"AssetNotSupported","inputs":[]},{"type":"error","name":"SafeCastOverflowedUintToInt","inputs":[{"name":"value","type":"uint256","internalType":"uint256"}]},{"type":"error","name":"TokenDecimalsTooLarge","inputs":[]},{"type":"error","name":"TokenIsNotAContract","inputs":[]},{"type":"error","name":"ZeroPrice","inputs":[]}],"bytecode":{"object":"0x60c060405234801561000f575f5ffd5b50604051610b02380380610b0283398101604081905261002e916101b2565b5f6100388261008c565b9050601260ff82161061005e5760405163a7617b4560e01b815260040160405180910390fd5b6100698160126101f3565b6100779060ff16600a6102f5565b60a052506001600160a01b0316608052610336565b6040805160048152602481019091526020810180516001600160e01b0390811663313ce56760e01b179091525f91829182916100cb918691906100fc16565b91509150816100dd57505f9392505050565b808060200190518101906100f19190610300565b60ff16949350505050565b5f60606001600160a01b0384163b610127576040516373d39f9d60e01b815260040160405180910390fd5b5f5f856001600160a01b0316856040516101419190610320565b5f60405180830381855afa9150503d805f8114610179576040519150601f19603f3d011682016040523d82523d5f602084013e61017e565b606091505b5091509150816101a3575f60405180602001604052805f8152509350935050506101ab565b600193509150505b9250929050565b5f602082840312156101c2575f5ffd5b81516001600160a01b03811681146101d8575f5ffd5b9392505050565b634e487b7160e01b5f52601160045260245ffd5b60ff828116828216039081111561020c5761020c6101df565b92915050565b6001815b600184111561024d57808504811115610231576102316101df565b600184161561023f57908102905b60019390931c928002610216565b935093915050565b5f826102635750600161020c565b8161026f57505f61020c565b8160018114610285576002811461028f576102ab565b600191505061020c565b60ff8411156102a0576102a06101df565b50506001821b61020c565b5060208310610133831016604e8410600b84101617156102ce575081810a61020c565b6102da5f198484610212565b805f19048211156102ed576102ed6101df565b029392505050565b5f6101d88383610255565b5f60208284031215610310575f5ffd5b815160ff811681146101d8575f5ffd5b5f82518060208501845e5f920191825250919050565b60805160a0516107906103725f395f818161020101526102c401525f818160f7015281816101800152818161026f015261031801526107905ff3fe608060405234801561000f575f5ffd5b50600436106100cb575f3560e01c80639a6fc8f511610088578063ce4b5bbe11610063578063ce4b5bbe146101fc578063f9fa619a14610223578063feaf968c14610236578063ffa1ad741461023e575f5ffd5b80639a6fc8f5146101a2578063a6391566146101f4578063c55dae63146100f5575f5ffd5b806313b0be33146100cf578063217a4b70146100f5578063313ce5671461012f57806354fd4d50146101445780637284e4161461014b57806378892cea1461017b575b5f5ffd5b6100e26100dd36600461054c565b61026c565b6040519081526020015b60405180910390f35b7f00000000000000000000000000000000000000000000000000000000000000005b6040516001600160a01b0390911681526020016100ec565b60125b60405160ff90911681526020016100ec565b60016100e2565b60408051808201909152600b81526a53696c6f204f7261636c6560a81b60208201525b6040516100ec9190610576565b6101177f000000000000000000000000000000000000000000000000000000000000000081565b6101bd6101b03660046105ab565b505f908190819081908190565b6040805169ffffffffffffffffffff968716815260208101959095528401929092526060830152909116608082015260a0016100ec565b610132601281565b6100e27f000000000000000000000000000000000000000000000000000000000000000081565b6102346102313660046105db565b50565b005b6101bd610311565b60408051808201909152601281527104f7261636c655363616c657220342e302e360741b602082015261016e565b5f7f00000000000000000000000000000000000000000000000000000000000000006001600160a01b0316826001600160a01b0316146102bf5760405163981a2a2b60e01b815260040160405180910390fd5b6102e97f000000000000000000000000000000000000000000000000000000000000000084610608565b9050805f0361030b57604051634dfba02360e01b815260040160405180910390fd5b92915050565b5f808080807f000000000000000000000000000000000000000000000000000000000000000081610341826103dc565b9050306103ca816313b0be3361035885600a610702565b6040516001600160e01b031960e084901b16815260048101919091526001600160a01b0387166024820152604401602060405180830381865afa1580156103a1573d5f5f3e3d5ffd5b505050506040513d601f19601f820116820180604052508101906103c5919061070d565b610447565b97984297508796505f95509350505050565b6040805160048152602481019091526020810180516001600160e01b031663313ce56760e01b1790525f908190819061041690859061047b565b915091508161042857505f9392505050565b8080602001905181019061043c9190610724565b60ff16949350505050565b5f6001600160ff1b038211156104775760405163123baf0360e11b81526004810183905260240160405180910390fd5b5090565b5f60606001600160a01b0384163b6104a6576040516373d39f9d60e01b815260040160405180910390fd5b5f5f856001600160a01b0316856040516104c09190610744565b5f60405180830381855afa9150503d805f81146104f8576040519150601f19603f3d011682016040523d82523d5f602084013e6104fd565b606091505b509150915081610522575f60405180602001604052805f81525093509350505061052a565b600193509150505b9250929050565b80356001600160a01b0381168114610547575f5ffd5b919050565b5f5f6040838503121561055d575f5ffd5b8235915061056d60208401610531565b90509250929050565b602081525f82518060208401528060208501604085015e5f604082850101526040601f19601f83011684010191505092915050565b5f602082840312156105bb575f5ffd5b813569ffffffffffffffffffff811681146105d4575f5ffd5b9392505050565b5f602082840312156105eb575f5ffd5b6105d482610531565b634e487b7160e01b5f52601160045260245ffd5b808202811582820484141761030b5761030b6105f4565b6001815b600184111561065a5780850481111561063e5761063e6105f4565b600184161561064c57908102905b60019390931c928002610623565b935093915050565b5f826106705750600161030b565b8161067c57505f61030b565b8160018114610692576002811461069c576106b8565b600191505061030b565b60ff8411156106ad576106ad6105f4565b50506001821b61030b565b5060208310610133831016604e8410600b84101617156106db575081810a61030b565b6106e75f19848461061f565b805f19048211156106fa576106fa6105f4565b029392505050565b5f6105d48383610662565b5f6020828403121561071d575f5ffd5b5051919050565b5f60208284031215610734575f5ffd5b815160ff811681146105d4575f5ffd5b5f82518060208501845e5f92019182525091905056fea264697066735822122074a333fa03cb924632be8612a249bcea0e783494c6c51380075a57aaecf45e4764736f6c634300081c0033","linkReferences":{}},"methodIdentifiers":{"DECIMALS_TO_SCALE()":"a6391566","QUOTE_TOKEN()":"78892cea","SCALE_FACTOR()":"ce4b5bbe","VERSION()":"ffa1ad74","baseToken()":"c55dae63","beforeQuote(address)":"f9fa619a","decimals()":"313ce567","description()":"7284e416","getRoundData(uint80)":"9a6fc8f5","latestRoundData()":"feaf968c","quote(uint256,address)":"13b0be33","quoteToken()":"217a4b70","version()":"54fd4d50"},"id":161}